:020000040000FA
:0400000055EF3BF08D
:1076A5000100000001A50EF66E760EF76E000EF8CD
:1076B5006E00EE0CF010EE05F00900F5CFEEFFE5DB
:1076C50050E150FAE1000EF86E00016AEF3BF00060
:1076D5000E956E000E8C6E938E939CF19E81BE76F8
:1076E500EF3BF078EF3BF09EEF3BF0102A070E10D2
:1076F50018D8A480EF3BF082EF3BF09EEF3BF00102
:107705000E106E9EEF3BF0C5EC3BF071EF3BF0C405
:10771500EC3DF071EF3BF069EC3CF071EF3BF03480
:10772500EC3FF071EF3BF07CEC3EF071EF3BF00D80
:10773500EC3DF071EF3BF010500A6E0B6A0B5000F8
:107745000AD8B4A8EF3BF071EF3BF00A50010AD814
:10775500B486EF3BF0030AD8B48AEF3BF0010AD8B0
:10776500B48EEF3BF0070AD8B492EF3BF0010AD88C
:10777500B496EF3BF0030AD8B49AEF3BF071EF3BB8
:10778500F000EF00F0000E046E000E036E04BED58F
:10779500EF3BF0045009E1080E035CD8A0D5EF3BA0
:1077A500F0D7EF3BF0D9EF3BF068EF3CF003C001B9
:1077B500F0010E026E012AE2EF3BF0D8900236018D
:1077C5002EE0EF3BF002508C6E0C040D100E100FE6
:1077D50010D8A4F0EF3BF0F2EF3BF0FBEF3BF00DE0
:1077E5000E016EFC0EE82EFED7012EFCD73CEF3CB9
:1077F500F0020E0C180D100E100F10D8A405EF3C5A
:10780500F007EF3CF011EF3CF01A0E016EF80EE8B0
:107815002EFED7012EFCD700D03CEF3CF0030E0C1A
:10782500180D100E100F10D8A41BEF3CF01DEF3CE7
:10783500F026EF3CF0340E016EF20EE82EFED70175
:107845002EFCD73CEF3CF0040E0C180D100E100F5B
:1078550010D8A430EF3CF032EF3CF03CEF3CF06840
:107865000E016EE40EE82EFED7012EFCD700D03CAB
:10787500EF3CF081BC41EF3CF043EF3CF064EF3C62
:10788500F00D0E016EFC0EE82EFED7012EFCD70181
:107895000E0C26000E0D220E220F22050E0C180DC1
:1078A500100E100F10D8A45AEF3CF05CEF3CF064BA
:1078B500EF3CF0010E0C6E000E0D6E000E0E6E000C
:1078C5000E0F6E034A042AC9EF3BF01200000E04A6
:1078D5006E000E036E04BE79EF3CF0045009E10919
:1078E5000E035CD8A079EF3CF07BEF3CF07DEF3CDC
:1078F500F00CEF3DF003C001F0010E026E012A8687
:10790500EF3CF0D8900236012E84EF3CF002048C57
:107915006E0C040D100E100F10D8A494EF3CF096C9
:10792500EF3CF09FEF3CF00D0E016EFC0EE82EFED5
:10793500D7012EFCD7E0EF3CF0020E0C180D100E0F
:10794500100F10D8A4A9EF3CF0ABEF3CF0B5EF3C1D
:10795500F01A0E016EF80EE82EFED7012EFCD700A8
:10796500D0E0EF3CF0030E0C180D100E100F10D8E0
:10797500A4BFEF3CF0C1EF3CF0CAEF3CF0340E0180
:107985006EF20EE82EFED7012EFCD7E0EF3CF00498
:107995000E0C180D100E100F10D8A4D4EF3CF0D615
:1079A500EF3CF0E0EF3CF0680E016EE40EE82EFED1
:1079B500D7012EFCD700D0E0EF3CF081BCE5EF3CD1
:1079C500F0E7EF3CF008EF3DF00D0E016EFC0EE820
:1079D5002EFED7012EFCD7010E0C26000E0D220E11
:1079E500220F22050E0C180D100E100F10D8A4FE34
:1079F500EF3CF000EF3DF008EF3DF0010E0C6E009E
:107A05000E0D6E000E0E6E000E0F6E034A042A6DEB
:107A1500EF3CF01200000E086E000E076E000E0619
:107A25006E040E056E08BE21EF3DF0085009E10415
:107A35000E075CD8A021EF3DF023EF3DF025EF3D8B
:107A4500F0C3EF3DF005C001F0010E026E012A2ED4
:107A5500EF3DF0D8900236012E2CEF3DF007C00324
:107A6500F0010E046E032A3AEF3DF0D89004360378
:107A75002E38EF3DF0045002248C6E0C040D100ED0
:107A8500100F10D8A449EF3DF04BEF3DF054EF3DFA
:107A9500F00D0E016EFC0EE82EFED7012EFCD795DB
:107AA500EF3DF0020E0C180D100E100F10D8A45E4D
:107AB500EF3DF060EF3DF06AEF3DF01A0E016EF814
:107AC5000EE82EFED7012EFCD700D095EF3DF00332
:107AD5000E0C180D100E100F10D8A474EF3DF07693
:107AE500EF3DF07FEF3DF0340E016EF20EE82EFE15
:107AF500D7012EFCD795EF3DF0040E0C180D100E96
:107B0500100F10D8A489EF3DF08BEF3DF095EF3DB8
:107B1500F0680E016EE40EE82EFED7012EFCD700AC
:107B2500D095EF3DF081BC9AEF3DF09CEF3DF0BD67
:107B3500EF3DF00D0E016EFC0EE82EFED7012EFC7A
:107B4500D7010E0C26000E0D220E220F22050E0C5B
:107B5500180D100E100F10D8A4B3EF3DF0B5EF3D82
:107B6500F0BDEF3DF0010E0C6E000E0D6E000E0E19
:107B75006E000E0F6E074A082A054A062A15EF3DC4
:107B8500F01200000E086E000E076E000E066E075E
:107B95000E056E08BED8EF3DF0085009E1080E0746
:107BA5005CD8A0D8EF3DF0DAEF3DF0DCEF3DF07B9F
:107BB500EF3EF005C001F0010E026E012AE5EF3D32
:107BC500F0D8900236012EE3EF3DF007C003F00137
:107BD5000E046E032AF1EF3DF0D8900436032EEF24
:107BE500EF3DF0045002248C6E0C040D100E100FA6
:107BF50010D8A400EF3EF002EF3EF00BEF3EF00D83
:107C05000E016EFC0EE82EFED7012EFCD74CEF3E82
:107C1500F0020E0C180D100E100F10D8A415EF3E23
:107C2500F017EF3EF021EF3EF01A0E016EF80EE868
:107C35002EFED7012EFCD700D04CEF3EF0030E0CE4
:107C4500180D100E100F10D8A42BEF3EF02DEF3E9F
:107C5500F036EF3EF0340E016EF20EE82EFED7013F
:107C65002EFCD74CEF3EF0040E0C180D100E100F25
:107C750010D8A440EF3EF042EF3EF04CEF3EF068E6
:107C85000E016EE40EE82EFED7012EFCD700D04C77
:107C9500EF3EF081BC51EF3EF053EF3EF074EF3E06
:107CA500F00D0E016EFC0EE82EFED7012EFCD7015D
:107CB5000E0C26000E0D220E220F22050E0C180D9D
:107CC500100E100F10D8A46AEF3EF06CEF3EF07462
:107CD500EF3EF0010E0C6E000E0D6E000E0E6E00E6
:107CE5000E0F6E074A082A0506D8A00606CCEF3DFA
:107CF500F01200000E086E080E076E000E066E07E5
:107D05000E056E08BE91EF3EF0085006E10704D857
:107D1500B08FEF3EF091EF3EF093EF3EF033EF3F43
:107D2500F005C001F0010E026E012A9CEF3EF0D86D
:107D3500900236012E9AEF3EF007C003F0010E04C3
:107D45006E032AA8EF3EF0D8900436032EA6EF3E28
:107D5500F0045002248C6E0C040D100E100F10D878
:107D6500A4B7EF3EF0B9EF3EF0C2EF3EF00D0E01C5
:107D75006EFC0EE82EFED7012EFCD703EF3FF00276
:107D85000E0C180D100E100F10D8A4CCEF3EF0CE2F
:107D9500EF3EF0D8EF3EF01A0E016EF80EE82EFE1B
:107DA500D7012EFCD700D003EF3FF0030E0C180DC2
:107DB500100E100F10D8A4E2EF3EF0E4EF3EF0ED08
:107DC500EF3EF0340E016EF20EE82EFED7012EFCCA
:107DD500D703EF3FF0040E0C180D100E100F10D83E
:107DE500A4F7EF3EF0F9EF3EF003EF3FF0680E0128
:107DF5006EE40EE82EFED7012EFCD700D003EF3F30
:107E0500F081BC08EF3FF00AEF3FF02BEF3FF00D9C
:107E15000E016EFC0EE82EFED7012EFCD7010E0CCE
:107E250026000E0D220E220F22050E0C180D100E27
:107E3500100F10D8A421EF3FF023EF3FF02BEF3FB9
:107E4500F0010E0C6E000E0D6E000E0E6E000E0F84
:107E55006E0706D8A008060506D8A0060684EF3EDC
:107E6500F01200000E076E000E066E000E096E0081
:107E75000E086E000E056E000E046E065008248C6A
:107E85006E04C001F0010E026E000E036E012A4F52
:107E9500EF3FF0D89002360336012E4CEF3FF00F3E
:107EA5000E0216000E031602500626035007220482
:107EB500500708016E010E026E000E036E012A675F
:107EC500EF3FF0D89002360336012E64EF3FF0F015
:107ED5000E0216000E031602500826035009220C46
:107EE500040D100E100F10D8A47BEF3FF07DEF3F6F
:107EF500F086EF3FF00D0E016EFC0EE82EFED70169
:107F05002EFCD7C7EF3FF0020E0C180D100E100F08
:107F150010D8A490EF3FF092EF3FF09CEF3FF01A9E
:107F25000E016EF80EE82EFED7012EFCD700D0C745
:107F3500EF3FF0030E0C180D100E100F10D8A4A66D
:107F4500EF3FF0A8EF3FF0B1EF3FF0340E016EF2D6
:107F55000EE82EFED7012EFCD7C7EF3FF0040E0C1E
:107F6500180D100E100F10D8A4BBEF3FF0BDEF3F5A
:107F7500F0C7EF3FF0680E016EE40EE82EFED70164
:107F85002EFCD700D0C7EF3FF081BCCCEF3FF0CE41
:107F9500EF3FF0EFEF3FF00D0E016EFC0EE82EFE09
:107FA500D7012EFCD7010E0C26000E0D220E220F36
:107FB50022050E0C180D100E100F10D8A4E5EF3F7A
:107FC500F0E7EF3FF0EFEF3FF0010E0C6E000E0D06
:107FD5006E000E0E6E000E0F6E044A052A05BEFDDC
:107FE500EF3FF0055009E1050E045CD8A0FDEF3F19
:0B7FF500F0FFEF3FF040EF3FF0120004
:020000040020DA
:08000000FFFFFFFFFFFFFFFF00
:020000040030CA
:0E00000000091F1EFF8181FF0FC00FE00F409F
:00000001FF
